{
  "address": "0x5ba0828A5488c20a9C6521a90ecc9c49e5390604",
  "abi": [
    {
      "inputs": [
        {
          "internalType": "address",
          "name": "_GLP",
          "type": "address"
        },
        {
          "internalType": "address",
          "name": "_GLPManager",
          "type": "address"
        },
        {
          "internalType": "address",
          "name": "_plvGLP",
          "type": "address"
        },
        {
          "internalType": "address",
          "name": "_whitelist",
          "type": "address"
        },
        {
          "internalType": "uint256",
          "name": "_windowSize",
          "type": "uint256"
        }
      ],
      "stateMutability": "nonpayable",
      "type": "constructor"
    },
    {
      "anonymous": false,
      "inputs": [
        {
          "indexed": false,
          "internalType": "uint256",
          "name": "previousIndex",
          "type": "uint256"
        },
        {
          "indexed": false,
          "internalType": "uint256",
          "name": "possiblyBadIndex",
          "type": "uint256"
        },
        {
          "indexed": false,
          "internalType": "uint256",
          "name": "timestamp",
          "type": "uint256"
        }
      ],
      "name": "IndexAlert",
      "type": "event"
    },
    {
      "anonymous": false,
      "inputs": [
        {
          "indexed": true,
          "internalType": "address",
          "name": "previousOwner",
          "type": "address"
        },
        {
          "indexed": true,
          "internalType": "address",
          "name": "newOwner",
          "type": "address"
        }
      ],
      "name": "OwnershipTransferStarted",
      "type": "event"
    },
    {
      "anonymous": false,
      "inputs": [
        {
          "indexed": true,
          "internalType": "address",
          "name": "previousOwner",
          "type": "address"
        },
        {
          "indexed": true,
          "internalType": "address",
          "name": "newOwner",
          "type": "address"
        }
      ],
      "name": "OwnershipTransferred",
      "type": "event"
    },
    {
      "anonymous": false,
      "inputs": [
        {
          "indexed": false,
          "internalType": "address",
          "name": "oldGLPAddress",
          "type": "address"
        },
        {
          "indexed": false,
          "internalType": "address",
          "name": "newGLPAddress",
          "type": "address"
        }
      ],
      "name": "newGLPAddress",
      "type": "event"
    },
    {
      "anonymous": false,
      "inputs": [
        {
          "indexed": false,
          "internalType": "address",
          "name": "oldManagerAddress",
          "type": "address"
        },
        {
          "indexed": false,
          "internalType": "address",
          "name": "newManagerAddress",
          "type": "address"
        }
      ],
      "name": "newGLPManagerAddress",
      "type": "event"
    },
    {
      "anonymous": false,
      "inputs": [
        {
          "indexed": false,
          "internalType": "uint256",
          "name": "oldMaxSwing",
          "type": "uint256"
        },
        {
          "indexed": false,
          "internalType": "uint256",
          "name": "newMaxSwing",
          "type": "uint256"
        }
      ],
      "name": "newMaxSwing",
      "type": "event"
    },
    {
      "anonymous": false,
      "inputs": [
        {
          "indexed": false,
          "internalType": "address",
          "name": "oldPlvGLPAddress",
          "type": "address"
        },
        {
          "indexed": false,
          "internalType": "address",
          "name": "newPlvGLPAddress",
          "type": "address"
        }
      ],
      "name": "newPlvGLPAddress",
      "type": "event"
    },
    {
      "anonymous": false,
      "inputs": [
        {
          "indexed": false,
          "internalType": "uint256",
          "name": "oldWindowSize",
          "type": "uint256"
        },
        {
          "indexed": false,
          "internalType": "uint256",
          "name": "newWindowSize",
          "type": "uint256"
        }
      ],
      "name": "newWindowSize",
      "type": "event"
    },
    {
      "anonymous": false,
      "inputs": [
        {
          "indexed": false,
          "internalType": "uint256",
          "name": "averageIndex",
          "type": "uint256"
        },
        {
          "indexed": false,
          "internalType": "uint256",
          "name": "timestamp",
          "type": "uint256"
        }
      ],
      "name": "updatePosted",
      "type": "event"
    },
    {
      "inputs": [],
      "name": "GLP",
      "outputs": [
        {
          "internalType": "address",
          "name": "",
          "type": "address"
        }
      ],
      "stateMutability": "view",
      "type": "function"
    },
    {
      "inputs": [],
      "name": "GLPManager",
      "outputs": [
        {
          "internalType": "address",
          "name": "",
          "type": "address"
        }
      ],
      "stateMutability": "view",
      "type": "function"
    },
    {
      "inputs": [
        {
          "internalType": "uint256",
          "name": "",
          "type": "uint256"
        }
      ],
      "name": "HistoricalIndices",
      "outputs": [
        {
          "internalType": "uint256",
          "name": "timestamp",
          "type": "uint256"
        },
        {
          "internalType": "uint256",
          "name": "recordedIndex",
          "type": "uint256"
        }
      ],
      "stateMutability": "view",
      "type": "function"
    },
    {
      "inputs": [],
      "name": "MAX_SWING",
      "outputs": [
        {
          "internalType": "uint256",
          "name": "",
          "type": "uint256"
        }
      ],
      "stateMutability": "view",
      "type": "function"
    },
    {
      "inputs": [
        {
          "internalType": "address",
          "name": "_newGlpAddress",
          "type": "address"
        }
      ],
      "name": "_updateGlpAddress",
      "outputs": [],
      "stateMutability": "nonpayable",
      "type": "function"
    },
    {
      "inputs": [
        {
          "internalType": "address",
          "name": "_newGlpManagerAddress",
          "type": "address"
        }
      ],
      "name": "_updateGlpManagerAddress",
      "outputs": [],
      "stateMutability": "nonpayable",
      "type": "function"
    },
    {
      "inputs": [
        {
          "internalType": "uint256",
          "name": "_newMaxSwing",
          "type": "uint256"
        }
      ],
      "name": "_updateMaxSwing",
      "outputs": [],
      "stateMutability": "nonpayable",
      "type": "function"
    },
    {
      "inputs": [
        {
          "internalType": "address",
          "name": "_newPlvGlpAddress",
          "type": "address"
        }
      ],
      "name": "_updatePlvGlpAddress",
      "outputs": [],
      "stateMutability": "nonpayable",
      "type": "function"
    },
    {
      "inputs": [
        {
          "internalType": "uint256",
          "name": "_newWindowSize",
          "type": "uint256"
        }
      ],
      "name": "_updateWindowSize",
      "outputs": [],
      "stateMutability": "nonpayable",
      "type": "function"
    },
    {
      "inputs": [],
      "name": "acceptOwnership",
      "outputs": [],
      "stateMutability": "nonpayable",
      "type": "function"
    },
    {
      "inputs": [],
      "name": "averageIndex",
      "outputs": [
        {
          "internalType": "uint256",
          "name": "",
          "type": "uint256"
        }
      ],
      "stateMutability": "view",
      "type": "function"
    },
    {
      "inputs": [],
      "name": "getGLPPrice",
      "outputs": [
        {
          "internalType": "uint256",
          "name": "",
          "type": "uint256"
        }
      ],
      "stateMutability": "view",
      "type": "function"
    },
    {
      "inputs": [],
      "name": "getPlutusExchangeRate",
      "outputs": [
        {
          "internalType": "uint256",
          "name": "",
          "type": "uint256"
        }
      ],
      "stateMutability": "view",
      "type": "function"
    },
    {
      "inputs": [],
      "name": "getPlvGLPPrice",
      "outputs": [
        {
          "internalType": "uint256",
          "name": "",
          "type": "uint256"
        }
      ],
      "stateMutability": "view",
      "type": "function"
    },
    {
      "inputs": [],
      "name": "getPreviousIndex",
      "outputs": [
        {
          "internalType": "uint256",
          "name": "",
          "type": "uint256"
        }
      ],
      "stateMutability": "view",
      "type": "function"
    },
    {
      "inputs": [],
      "name": "isGLPOracle",
      "outputs": [
        {
          "internalType": "bool",
          "name": "",
          "type": "bool"
        }
      ],
      "stateMutability": "view",
      "type": "function"
    },
    {
      "inputs": [],
      "name": "owner",
      "outputs": [
        {
          "internalType": "address",
          "name": "",
          "type": "address"
        }
      ],
      "stateMutability": "view",
      "type": "function"
    },
    {
      "inputs": [],
      "name": "pendingOwner",
      "outputs": [
        {
          "internalType": "address",
          "name": "",
          "type": "address"
        }
      ],
      "stateMutability": "view",
      "type": "function"
    },
    {
      "inputs": [],
      "name": "plvGLP",
      "outputs": [
        {
          "internalType": "address",
          "name": "",
          "type": "address"
        }
      ],
      "stateMutability": "view",
      "type": "function"
    },
    {
      "inputs": [],
      "name": "renounceOwnership",
      "outputs": [],
      "stateMutability": "nonpayable",
      "type": "function"
    },
    {
      "inputs": [
        {
          "internalType": "address",
          "name": "newOwner",
          "type": "address"
        }
      ],
      "name": "transferOwnership",
      "outputs": [],
      "stateMutability": "nonpayable",
      "type": "function"
    },
    {
      "inputs": [],
      "name": "updateIndex",
      "outputs": [],
      "stateMutability": "nonpayable",
      "type": "function"
    },
    {
      "inputs": [],
      "name": "whitelist",
      "outputs": [
        {
          "internalType": "address",
          "name": "",
          "type": "address"
        }
      ],
      "stateMutability": "view",
      "type": "function"
    },
    {
      "inputs": [],
      "name": "windowSize",
      "outputs": [
        {
          "internalType": "uint256",
          "name": "",
          "type": "uint256"
        }
      ],
      "stateMutability": "view",
      "type": "function"
    }
  ],
  "transactionHash": "0x5443fdb36e8284194f463387f341f24c398b8051e4adfba72e498f5099add2d6",
  "args": [
    "0x1aDDD80E6039594eE970E5872D247bf0414C8903",
    "0x3963FfC9dff443c2A94f21b129D429891E32ec18",
    "0x5326E71Ff593Ecc2CF7AcaE5Fe57582D6e74CFF1",
    "0x212eb8698b9c77db9124ABc841E5C36e81DA4095",
    6
  ],
  "numDeployments": 2,
  "solcInputHash": "da1ef158ae69245c761ca72c051491c3",
  "bytecode": "0x60806040523480156200001157600080fd5b506040516200129d3803806200129d83398101604081905262000034916200033e565b6200003f336200017f565b600480546001600160a01b038088166001600160a01b031992831617909255600580548784169083161790556006805486841690831617905560078054928516929091169190911790556003819055662386f26fc100006008556000620000a5620001a9565b905060008111620000fc5760405162461bcd60e51b815260206004820152601b60248201527f466972737420696e6465782063616e6e6f74206265207a65726f2e0000000000604482015260640160405180910390fd5b60408051808201909152428152602081019182526009805460018101825560009190915290517f6e1540171b6c0c960b71a7020d9f60077f6af931a8bbf590da0223dacf75c7af60029092029182015590517f6e1540171b6c0c960b71a7020d9f60077f6af931a8bbf590da0223dacf75c7b090910155506200040e9350505050565b600180546001600160a01b0319169055620001a681620002d1602090811b62000a9a17901c565b50565b600080600660009054906101000a90046001600160a01b03166001600160a01b03166301e1d1146040518163ffffffff1660e01b8152600401602060405180830381865afa15801562000200573d6000803e3d6000fd5b505050506040513d601f19601f82011682018060405250810190620002269190620003a5565b90506000600660009054906101000a90046001600160a01b03166001600160a01b03166318160ddd6040518163ffffffff1660e01b8152600401602060405180830381865afa1580156200027e573d6000803e3d6000fd5b505050506040513d601f19601f82011682018060405250810190620002a49190620003a5565b9050600081620002bd670de0b6b3a764000085620003bf565b620002c99190620003eb565b949350505050565b600080546001600160a01b038381166001600160a01b0319831681178455604051919092169283917f8be0079c531659141344cd1fd0a4f28419497f9722a3daafe3b4186f6b6457e09190a35050565b80516001600160a01b03811681146200033957600080fd5b919050565b600080600080600060a086880312156200035757600080fd5b620003628662000321565b9450620003726020870162000321565b9350620003826040870162000321565b9250620003926060870162000321565b9150608086015190509295509295909350565b600060208284031215620003b857600080fd5b5051919050565b8082028115828204841417620003e557634e487b7160e01b600052601160045260246000fd5b92915050565b6000826200040957634e487b7160e01b600052601260045260246000fd5b500490565b610e7f806200041e6000396000f3fe608060405234801561001057600080fd5b50600436106101585760003560e01c806393099cb9116100c3578063d2dcf99d1161007c578063d2dcf99d1461029d578063e30c3978146102b0578063edd145f4146102c1578063f2fde38b146102d9578063f9f5248f146102ec578063fc9e7897146102f457600080fd5b806393099cb91461022c57806393e59dc11461023f57806398bb74e214610252578063b0f165441461025a578063b28147d914610282578063b9f412b01461029557600080fd5b80635bf12feb116101155780635bf12feb146101e7578063715018a6146101fa578063731cf4251461020257806379ba50971461020a5780638a14117a146102125780638da5cb5b1461021b57600080fd5b806307701ade1461015d5780631b5423721461017257806340d0c3111461018d578063437cd894146101b85780634781ffb6146101c157806347a008b8146101d4575b600080fd5b61017061016b366004610d22565b6102fd565b005b61017a61034b565b6040519081526020015b60405180910390f35b6006546101a0906001600160a01b031681565b6040516001600160a01b039091168152602001610184565b61017a60085481565b6101706101cf366004610d3b565b610392565b6101706101e2366004610d22565b6103f4565b6005546101a0906001600160a01b031681565b61017061043a565b61017a61044e565b610170610485565b61017a60035481565b6000546001600160a01b03166101a0565b61017061023a366004610d3b565b610504565b6007546101a0906001600160a01b031681565b61017a610566565b61026d610268366004610d22565b610684565b60408051928352602083019190915201610184565b6004546101a0906001600160a01b031681565b6101706106b2565b6101706102ab366004610d3b565b6108c8565b6001546001600160a01b03166101a0565b6102c9600181565b6040519015158152602001610184565b6101706102e7366004610d3b565b61092a565b61017a61099b565b61017a60025481565b610305610aea565b600380549082905560408051828152602081018490527f2c14c9350835425096ce3774545af15ee0141bc1f996bc1dd199b1eca862959191015b60405180910390a15050565b600954600090819061035f90600190610d7a565b905060006009828154811061037657610376610d93565b9060005260206000209060020201600101549050809250505090565b61039a610aea565b600480546001600160a01b038381166001600160a01b031983168117909355604080519190921680825260208201939093527fde5434ed888fac5f8b4efa5dbf5271ce7065f97af9f90f5853880a338b823e97910161033f565b6103fc610aea565b600880549082905560408051828152602081018490527fd91cb87ea157c35e012c84fb8d3c3080cad43d3afe91115d99238f8cdf385154910161033f565b610442610aea565b61044c6000610b44565b565b60008061045961099b565b90506000670de0b6b3a7640000826002546104749190610da9565b61047e9190610dc0565b9392505050565b60015433906001600160a01b031681146104f85760405162461bcd60e51b815260206004820152602960248201527f4f776e61626c6532537465703a2063616c6c6572206973206e6f7420746865206044820152683732bb9037bbb732b960b91b60648201526084015b60405180910390fd5b61050181610b44565b50565b61050c610aea565b600580546001600160a01b038381166001600160a01b031983168117909355604080519190921680825260208201939093527f07b18e7d9a54507fc51e0c3e89db1a56cb3e7f9ea8f88929c6ec105af6a7baee910161033f565b600080600660009054906101000a90046001600160a01b03166001600160a01b03166301e1d1146040518163ffffffff1660e01b8152600401602060405180830381865afa1580156105bc573d6000803e3d6000fd5b505050506040513d601f19601f820116820180604052508101906105e09190610de2565b90506000600660009054906101000a90046001600160a01b03166001600160a01b03166318160ddd6040518163ffffffff1660e01b8152600401602060405180830381865afa158015610637573d6000803e3d6000fd5b505050506040513d601f19601f8201168201806040525081019061065b9190610de2565b9050600081610672670de0b6b3a764000085610da9565b61067c9190610dc0565b949350505050565b6009818154811061069457600080fd5b60009182526020909120600290910201805460019091015490915082565b600754604051633af32abf60e01b81523360048201526001600160a01b0390911690633af32abf90602401602060405180830381865afa1580156106fa573d6000803e3d6000fd5b505050506040513d601f19601f8201168201806040525081019061071e9190610dfb565b61075b5760405162461bcd60e51b815260206004820152600e60248201526d1393d517d055551213d49256915160921b60448201526064016104ef565b6000610765610566565b9050600061077161034b565b9050600061077e83610b5d565b90508061084a5760408051808201909152428152602081018381526009805460018101825560009190915291517f6e1540171b6c0c960b71a7020d9f60077f6af931a8bbf590da0223dacf75c7af600290930292830155517f6e1540171b6c0c960b71a7020d9f60077f6af931a8bbf590da0223dacf75c7b0909101559091508190610808610c13565b6002819055604080519182524260208301527f086c06be0b6ec1b3888e9e00248848c72c994f5f2c67797a5f382642f37d528e910160405180910390a1505050565b60408051808201909152428152602081018481526009805460018101825560009190915291517f6e1540171b6c0c960b71a7020d9f60077f6af931a8bbf590da0223dacf75c7af600290930292830155517f6e1540171b6c0c960b71a7020d9f60077f6af931a8bbf590da0223dacf75c7b090910155610808610c13565b6108d0610aea565b600680546001600160a01b038381166001600160a01b031983168117909355604080519190921680825260208201939093527ff4c109dce4619f2c5b5b0e45be8c88d86f0c9194cd21f6635734af6af6942313910161033f565b610932610aea565b600180546001600160a01b0383166001600160a01b031990911681179091556109636000546001600160a01b031690565b6001600160a01b03167f38d16b8cac22d99fc7c124b9cd0de2d3fa1faef420bfe791d8c362d765e2270060405160405180910390a350565b60055460405163019c8a3b60e11b81526000600482018190529182916001600160a01b0390911690630339147690602401602060405180830381865afa1580156109e9573d6000803e3d6000fd5b505050506040513d601f19601f82011682018060405250810190610a0d9190610de2565b90506000600460009054906101000a90046001600160a01b03166001600160a01b03166318160ddd6040518163ffffffff1660e01b8152600401602060405180830381865afa158015610a64573d6000803e3d6000fd5b505050506040513d601f19601f82011682018060405250810190610a889190610de2565b9050600081610672620f424085610da9565b600080546001600160a01b038381166001600160a01b0319831681178455604051919092169283917f8be0079c531659141344cd1fd0a4f28419497f9722a3daafe3b4186f6b6457e09190a35050565b6000546001600160a01b0316331461044c5760405162461bcd60e51b815260206004820181905260248201527f4f776e61626c653a2063616c6c6572206973206e6f7420746865206f776e657260448201526064016104ef565b600180546001600160a01b031916905561050181610a9a565b600080610b6861034b565b90506000670de0b6b3a764000060085483610b839190610da9565b610b8d9190610dc0565b90506000610b9b8284610d7a565b90506000610ba98385610e1d565b905080861180610bb857508186105b15610c07576040805185815260208101889052428183015290517efd19f8cbc03d8ecb7e340df1e5c84227b9bf3190f6b3eec0662492286ccb809181900360600190a150600095945050505050565b50600195945050505050565b6009546000908190610c2790600190610d7a565b905060006003548211610c9d5760005b82811015610c835760098181548110610c5257610c52610d93565b90600052602060002090600202016001015482610c6f9190610e1d565b915080610c7b81610e30565b915050610c37565b50600954610c919082610dc0565b60028190559392505050565b600060035483610cad9190610d7a565b610cb8906001610e1d565b9050805b838111610d075760098181548110610cd657610cd6610d93565b90600052602060002090600202016001015483610cf39190610e1d565b925080610cff81610e30565b915050610cbc565b50600354610d159083610dc0565b6002819055949350505050565b600060208284031215610d3457600080fd5b5035919050565b600060208284031215610d4d57600080fd5b81356001600160a01b038116811461047e57600080fd5b634e487b7160e01b600052601160045260246000fd5b81810381811115610d8d57610d8d610d64565b92915050565b634e487b7160e01b600052603260045260246000fd5b8082028115828204841417610d8d57610d8d610d64565b600082610ddd57634e487b7160e01b600052601260045260246000fd5b500490565b600060208284031215610df457600080fd5b5051919050565b600060208284031215610e0d57600080fd5b8151801515811461047e57600080fd5b80820180821115610d8d57610d8d610d64565b600060018201610e4257610e42610d64565b506001019056fea2646970667358221220ef9a9483b02e06a4cd813b0f6c49e69fbed775f733e5bba2fc07077f568bb69664736f6c63430008110033",
  "devdoc": {
    "author": "Lodestar Finance",
    "kind": "dev",
    "methods": {
      "acceptOwnership()": {
        "details": "The new owner accepts the ownership transfer."
      },
      "getGLPPrice()": {
        "returns": {
          "_0": "Returns the price of GLP denominated in USD wei."
        }
      },
      "getPlutusExchangeRate()": {
        "returns": {
          "_0": "Returns the current plvGLP/GLP exchange rate directly from Plutus vault contract."
        }
      },
      "getPlvGLPPrice()": {
        "returns": {
          "_0": "Returns the TWAP price of plvGLP denominated in USD wei."
        }
      },
      "owner()": {
        "details": "Returns the address of the current owner."
      },
      "pendingOwner()": {
        "details": "Returns the address of the pending owner."
      },
      "renounceOwnership()": {
        "details": "Leaves the contract without owner. It will not be possible to call `onlyOwner` functions anymore. Can only be called by the current owner. NOTE: Renouncing ownership will leave the contract without an owner, thereby removing any functionality that is only available to the owner."
      },
      "transferOwnership(address)": {
        "details": "Starts the ownership transfer of the contract to a new account. Replaces the pending transfer if there is one. Can only be called by the current owner."
      },
      "updateIndex()": {
        "details": "we only ever update the index if requested update is within +/- 1% of previously accepted index."
      }
    },
    "title": "Oracle for Plutus Vault GLP employing moving average calculations for pricing",
    "version": 1
  },
  "userdoc": {
    "kind": "user",
    "methods": {
      "_updateGlpAddress(address)": {
        "notice": "Admin function to update the address of GLP, restricted to only be  usable by the contract owner."
      },
      "_updateGlpManagerAddress(address)": {
        "notice": "Admin function to update the address of the GLP Manager Contract, restricted to only be  usable by the contract owner."
      },
      "_updatePlvGlpAddress(address)": {
        "notice": "Admin function to update the address of plvGLP, restricted to only be  usable by the contract owner."
      },
      "_updateWindowSize(uint256)": {
        "notice": "Admin function to update the moving average window size, restricted to only be  usable by the contract owner."
      },
      "getGLPPrice()": {
        "notice": "Pulls requisite data from GLP contract to calculate the current price of GLP"
      },
      "getPlutusExchangeRate()": {
        "notice": "Pulls requisite data from Plutus Vault contract to calculate the current exchange rate."
      },
      "getPlvGLPPrice()": {
        "notice": "Computes the TWAP price of plvGLP based on the current price of GLP and moving average of the plvGLP/GLP exchange rate."
      },
      "getPreviousIndex()": {
        "notice": "Returns the value of the previously accepted exchange rate."
      },
      "updateIndex()": {
        "notice": "Update the current, cumulative and average indices when required conditions are met. If the price fails to update, the posted price will fall back on the last previously  accepted average index. Access is restricted to only whitelisted addresses."
      }
    },
    "notice": "This contract uses a moving average calculation to report a plvGLP/GLP exchange rate. The \"window size\" is adjustable to allow for flexibility in calculation parameters. The price returned from the getPlvGLPPrice function is denominated in USD wei.",
    "version": 1
  },
  "storageLayout": {
    "storage": [
      {
        "astId": 7,
        "contract": "contracts/PlvGLPOracle.sol:PlvGLPOracle",
        "label": "_owner",
        "offset": 0,
        "slot": "0",
        "type": "t_address"
      },
      {
        "astId": 120,
        "contract": "contracts/PlvGLPOracle.sol:PlvGLPOracle",
        "label": "_pendingOwner",
        "offset": 0,
        "slot": "1",
        "type": "t_address"
      },
      {
        "astId": 345,
        "contract": "contracts/PlvGLPOracle.sol:PlvGLPOracle",
        "label": "averageIndex",
        "offset": 0,
        "slot": "2",
        "type": "t_uint256"
      },
      {
        "astId": 347,
        "contract": "contracts/PlvGLPOracle.sol:PlvGLPOracle",
        "label": "windowSize",
        "offset": 0,
        "slot": "3",
        "type": "t_uint256"
      },
      {
        "astId": 349,
        "contract": "contracts/PlvGLPOracle.sol:PlvGLPOracle",
        "label": "GLP",
        "offset": 0,
        "slot": "4",
        "type": "t_address"
      },
      {
        "astId": 351,
        "contract": "contracts/PlvGLPOracle.sol:PlvGLPOracle",
        "label": "GLPManager",
        "offset": 0,
        "slot": "5",
        "type": "t_address"
      },
      {
        "astId": 353,
        "contract": "contracts/PlvGLPOracle.sol:PlvGLPOracle",
        "label": "plvGLP",
        "offset": 0,
        "slot": "6",
        "type": "t_address"
      },
      {
        "astId": 355,
        "contract": "contracts/PlvGLPOracle.sol:PlvGLPOracle",
        "label": "whitelist",
        "offset": 0,
        "slot": "7",
        "type": "t_address"
      },
      {
        "astId": 357,
        "contract": "contracts/PlvGLPOracle.sol:PlvGLPOracle",
        "label": "MAX_SWING",
        "offset": 0,
        "slot": "8",
        "type": "t_uint256"
      },
      {
        "astId": 375,
        "contract": "contracts/PlvGLPOracle.sol:PlvGLPOracle",
        "label": "HistoricalIndices",
        "offset": 0,
        "slot": "9",
        "type": "t_array(t_struct(IndexInfo)371_storage)dyn_storage"
      }
    ],
    "types": {
      "t_address": {
        "encoding": "inplace",
        "label": "address",
        "numberOfBytes": "20"
      },
      "t_array(t_struct(IndexInfo)371_storage)dyn_storage": {
        "base": "t_struct(IndexInfo)371_storage",
        "encoding": "dynamic_array",
        "label": "struct PlvGLPOracle.IndexInfo[]",
        "numberOfBytes": "32"
      },
      "t_struct(IndexInfo)371_storage": {
        "encoding": "inplace",
        "label": "struct PlvGLPOracle.IndexInfo",
        "members": [
          {
            "astId": 368,
            "contract": "contracts/PlvGLPOracle.sol:PlvGLPOracle",
            "label": "timestamp",
            "offset": 0,
            "slot": "0",
            "type": "t_uint256"
          },
          {
            "astId": 370,
            "contract": "contracts/PlvGLPOracle.sol:PlvGLPOracle",
            "label": "recordedIndex",
            "offset": 0,
            "slot": "1",
            "type": "t_uint256"
          }
        ],
        "numberOfBytes": "64"
      },
      "t_uint256": {
        "encoding": "inplace",
        "label": "uint256",
        "numberOfBytes": "32"
      }
    }
  }
}