{
  "address": "0xa544575e1F79B8F585C98d8F3869641aE76d3b59",
  "abi": [
    {
      "inputs": [
        {
          "internalType": "address",
          "name": "_GLP",
          "type": "address"
        },
        {
          "internalType": "address",
          "name": "_GLPManager",
          "type": "address"
        },
        {
          "internalType": "address",
          "name": "_plvGLP",
          "type": "address"
        },
        {
          "internalType": "uint256",
          "name": "_windowSize",
          "type": "uint256"
        }
      ],
      "stateMutability": "nonpayable",
      "type": "constructor"
    },
    {
      "anonymous": false,
      "inputs": [
        {
          "indexed": false,
          "internalType": "uint256",
          "name": "previousIndex",
          "type": "uint256"
        },
        {
          "indexed": false,
          "internalType": "uint256",
          "name": "possiblyBadIndex",
          "type": "uint256"
        },
        {
          "indexed": false,
          "internalType": "uint256",
          "name": "timestamp",
          "type": "uint256"
        }
      ],
      "name": "IndexAlert",
      "type": "event"
    },
    {
      "anonymous": false,
      "inputs": [
        {
          "indexed": true,
          "internalType": "address",
          "name": "previousOwner",
          "type": "address"
        },
        {
          "indexed": true,
          "internalType": "address",
          "name": "newOwner",
          "type": "address"
        }
      ],
      "name": "OwnershipTransferred",
      "type": "event"
    },
    {
      "anonymous": false,
      "inputs": [
        {
          "indexed": false,
          "internalType": "uint256",
          "name": "averageIndex",
          "type": "uint256"
        },
        {
          "indexed": false,
          "internalType": "uint256",
          "name": "timestamp",
          "type": "uint256"
        }
      ],
      "name": "updatePosted",
      "type": "event"
    },
    {
      "inputs": [],
      "name": "GLP",
      "outputs": [
        {
          "internalType": "address",
          "name": "",
          "type": "address"
        }
      ],
      "stateMutability": "view",
      "type": "function"
    },
    {
      "inputs": [],
      "name": "GLPManager",
      "outputs": [
        {
          "internalType": "address",
          "name": "",
          "type": "address"
        }
      ],
      "stateMutability": "view",
      "type": "function"
    },
    {
      "inputs": [
        {
          "internalType": "uint256",
          "name": "",
          "type": "uint256"
        }
      ],
      "name": "HistoricalIndices",
      "outputs": [
        {
          "internalType": "uint256",
          "name": "timestamp",
          "type": "uint256"
        },
        {
          "internalType": "uint256",
          "name": "recordedIndex",
          "type": "uint256"
        }
      ],
      "stateMutability": "view",
      "type": "function"
    },
    {
      "inputs": [],
      "name": "averageIndex",
      "outputs": [
        {
          "internalType": "uint256",
          "name": "",
          "type": "uint256"
        }
      ],
      "stateMutability": "view",
      "type": "function"
    },
    {
      "inputs": [
        {
          "internalType": "uint256",
          "name": "currentIndex",
          "type": "uint256"
        }
      ],
      "name": "checkSwing",
      "outputs": [
        {
          "internalType": "bool",
          "name": "",
          "type": "bool"
        }
      ],
      "stateMutability": "nonpayable",
      "type": "function"
    },
    {
      "inputs": [],
      "name": "computeAverageIndex",
      "outputs": [
        {
          "internalType": "uint256",
          "name": "",
          "type": "uint256"
        }
      ],
      "stateMutability": "nonpayable",
      "type": "function"
    },
    {
      "inputs": [],
      "name": "getGLPPrice",
      "outputs": [
        {
          "internalType": "uint256",
          "name": "",
          "type": "uint256"
        }
      ],
      "stateMutability": "view",
      "type": "function"
    },
    {
      "inputs": [],
      "name": "getPlutusExchangeRate",
      "outputs": [
        {
          "internalType": "uint256",
          "name": "",
          "type": "uint256"
        }
      ],
      "stateMutability": "view",
      "type": "function"
    },
    {
      "inputs": [],
      "name": "getPlvGLPPrice",
      "outputs": [
        {
          "internalType": "uint256",
          "name": "",
          "type": "uint256"
        }
      ],
      "stateMutability": "view",
      "type": "function"
    },
    {
      "inputs": [],
      "name": "getPreviousIndex",
      "outputs": [
        {
          "internalType": "uint256",
          "name": "",
          "type": "uint256"
        }
      ],
      "stateMutability": "view",
      "type": "function"
    },
    {
      "inputs": [],
      "name": "isGLPOracle",
      "outputs": [
        {
          "internalType": "bool",
          "name": "",
          "type": "bool"
        }
      ],
      "stateMutability": "view",
      "type": "function"
    },
    {
      "inputs": [],
      "name": "owner",
      "outputs": [
        {
          "internalType": "address",
          "name": "",
          "type": "address"
        }
      ],
      "stateMutability": "view",
      "type": "function"
    },
    {
      "inputs": [],
      "name": "plvGLP",
      "outputs": [
        {
          "internalType": "address",
          "name": "",
          "type": "address"
        }
      ],
      "stateMutability": "view",
      "type": "function"
    },
    {
      "inputs": [],
      "name": "renounceOwnership",
      "outputs": [],
      "stateMutability": "nonpayable",
      "type": "function"
    },
    {
      "inputs": [
        {
          "internalType": "address",
          "name": "newOwner",
          "type": "address"
        }
      ],
      "name": "transferOwnership",
      "outputs": [],
      "stateMutability": "nonpayable",
      "type": "function"
    },
    {
      "inputs": [],
      "name": "updateIndex",
      "outputs": [],
      "stateMutability": "nonpayable",
      "type": "function"
    },
    {
      "inputs": [],
      "name": "windowSize",
      "outputs": [
        {
          "internalType": "uint256",
          "name": "",
          "type": "uint256"
        }
      ],
      "stateMutability": "view",
      "type": "function"
    }
  ],
  "transactionHash": "0xd17ec8b48ee4c4f2d325572a12039e1da4b89547a97a39e44132122444afd3e5",
  "args": [
    "0x6a86B2f0c78a6a3FeecD482FF14b2F30eF7B39a8",
    "0x6a86B2f0c78a6a3FeecD482FF14b2F30eF7B39a8",
    "0x9A2b694875c587986c3A07096Fd30275E97A6274",
    6
  ],
  "numDeployments": 15,
  "solcInputHash": "db9b3e4834e66ae55e47b59be78d1b28",
  "bytecode": "0x60806040523480156200001157600080fd5b5060405162000e8138038062000e818339810160408190526200003491620002fb565b6200003f3362000166565b600380546001600160a01b038087166001600160a01b031992831617909255600480548684169083161790556005805492851692909116919091179055600281905560006200008d620001b6565b905060008111620000e45760405162461bcd60e51b815260206004820152601b60248201527f466972737420696e6465782063616e6e6f74206265207a65726f2e0000000000604482015260640160405180910390fd5b60408051808201909152428152602081019182526006805460018101825560009190915290517ff652222313e28459528d920b65115c16c04f3efc82aaedc97be59f3f377c0d3f60029092029182015590517ff652222313e28459528d920b65115c16c04f3efc82aaedc97be59f3f377c0d409091015550620003b692505050565b600080546001600160a01b038381166001600160a01b0319831681178455604051919092169283917f8be0079c531659141344cd1fd0a4f28419497f9722a3daafe3b4186f6b6457e09190a35050565b600080600560009054906101000a90046001600160a01b03166001600160a01b03166301e1d1146040518163ffffffff1660e01b8152600401602060405180830381865afa1580156200020d573d6000803e3d6000fd5b505050506040513d601f19601f820116820180604052508101906200023391906200034d565b90506000600560009054906101000a90046001600160a01b03166001600160a01b03166318160ddd6040518163ffffffff1660e01b8152600401602060405180830381865afa1580156200028b573d6000803e3d6000fd5b505050506040513d601f19601f82011682018060405250810190620002b191906200034d565b9050600081620002ca670de0b6b3a76400008562000367565b620002d6919062000393565b949350505050565b80516001600160a01b0381168114620002f657600080fd5b919050565b600080600080608085870312156200031257600080fd5b6200031d85620002de565b93506200032d60208601620002de565b92506200033d60408601620002de565b6060959095015193969295505050565b6000602082840312156200036057600080fd5b5051919050565b80820281158282048414176200038d57634e487b7160e01b600052601160045260246000fd5b92915050565b600082620003b157634e487b7160e01b600052601260045260246000fd5b500490565b610abb80620003c66000396000f3fe608060405234801561001057600080fd5b506004361061010b5760003560e01c80638da5cb5b116100a2578063b9f412b011610071578063b9f412b014610203578063edd145f41461020b578063f2fde38b14610213578063f9f5248f14610226578063fc9e78971461022e57600080fd5b80638da5cb5b146101af57806398bb74e2146101c0578063b0f16544146101c8578063b28147d9146101f057600080fd5b80636689cd3a116100de5780636689cd3a1461018c578063715018a614610194578063731cf4251461019e5780638a14117a146101a657600080fd5b80631b5423721461011057806340d0c3111461012b5780635bf12feb146101565780635d70af3314610169575b600080fd5b610118610237565b6040519081526020015b60405180910390f35b60055461013e906001600160a01b031681565b6040516001600160a01b039091168152602001610122565b60045461013e906001600160a01b031681565b61017c610177366004610980565b61027e565b6040519015158152602001610122565b610118610337565b61019c610446565b005b61011861045a565b61011860025481565b6000546001600160a01b031661013e565b610118610491565b6101db6101d6366004610980565b6105af565b60408051928352602083019190915201610122565b60035461013e906001600160a01b031681565b61019c6105dd565b61017c600181565b61019c610221366004610999565b610752565b6101186107d0565b61011860015481565b600654600090819061024b906001906109d8565b9050600060068281548110610262576102626109f1565b9060005260206000209060020201600101549050809250505090565b600080610289610237565b90506000670de0b6b3a76400006102a7662386f26fc1000084610a07565b6102b19190610a1e565b905060006102bf82846109d8565b905060006102cd8385610a40565b9050808611806102dc57508186105b1561032b576040805185815260208101889052428183015290517efd19f8cbc03d8ecb7e340df1e5c84227b9bf3190f6b3eec0662492286ccb809181900360600190a150600095945050505050565b50600195945050505050565b600654600090819061034b906001906109d8565b9050600060025482116103c15760005b828110156103a75760068181548110610376576103766109f1565b906000526020600020906002020160010154826103939190610a40565b91508061039f81610a53565b91505061035b565b506006546103b59082610a1e565b60018190559392505050565b6000600254836103d191906109d8565b6103dc906001610a40565b9050805b83811161042b57600681815481106103fa576103fa6109f1565b906000526020600020906002020160010154836104179190610a40565b92508061042381610a53565b9150506103e0565b506002546104399083610a1e565b6001819055949350505050565b61044e6108d6565b6104586000610930565b565b6000806104656107d0565b90506000670de0b6b3a7640000826001546104809190610a07565b61048a9190610a1e565b9392505050565b600080600560009054906101000a90046001600160a01b03166001600160a01b03166301e1d1146040518163ffffffff1660e01b8152600401602060405180830381865afa1580156104e7573d6000803e3d6000fd5b505050506040513d601f19601f8201168201806040525081019061050b9190610a6c565b90506000600560009054906101000a90046001600160a01b03166001600160a01b03166318160ddd6040518163ffffffff1660e01b8152600401602060405180830381865afa158015610562573d6000803e3d6000fd5b505050506040513d601f19601f820116820180604052508101906105869190610a6c565b905060008161059d670de0b6b3a764000085610a07565b6105a79190610a1e565b949350505050565b600681815481106105bf57600080fd5b60009182526020909120600290910201805460019091015490915082565b6105e56108d6565b60006105ef610491565b905060006105fb610237565b905060006106088361027e565b9050806106d45760408051808201909152428152602081018381526006805460018101825560009190915291517ff652222313e28459528d920b65115c16c04f3efc82aaedc97be59f3f377c0d3f600290930292830155517ff652222313e28459528d920b65115c16c04f3efc82aaedc97be59f3f377c0d40909101559091508190610692610337565b6001819055604080519182524260208301527f086c06be0b6ec1b3888e9e00248848c72c994f5f2c67797a5f382642f37d528e910160405180910390a1505050565b60408051808201909152428152602081018481526006805460018101825560009190915291517ff652222313e28459528d920b65115c16c04f3efc82aaedc97be59f3f377c0d3f600290930292830155517ff652222313e28459528d920b65115c16c04f3efc82aaedc97be59f3f377c0d4090910155610692610337565b61075a6108d6565b6001600160a01b0381166107c45760405162461bcd60e51b815260206004820152602660248201527f4f776e61626c653a206e6577206f776e657220697320746865207a65726f206160448201526564647265737360d01b60648201526084015b60405180910390fd5b6107cd81610930565b50565b6004805460405163019c8a3b60e11b8152600092810183905282916001600160a01b031690630339147690602401602060405180830381865afa15801561081b573d6000803e3d6000fd5b505050506040513d601f19601f8201168201806040525081019061083f9190610a6c565b90506000600360009054906101000a90046001600160a01b03166001600160a01b03166318160ddd6040518163ffffffff1660e01b8152600401602060405180830381865afa158015610896573d6000803e3d6000fd5b505050506040513d601f19601f820116820180604052508101906108ba9190610a6c565b90506000620f42406108cc8385610a1e565b6105a79190610a07565b6000546001600160a01b031633146104585760405162461bcd60e51b815260206004820181905260248201527f4f776e61626c653a2063616c6c6572206973206e6f7420746865206f776e657260448201526064016107bb565b600080546001600160a01b038381166001600160a01b0319831681178455604051919092169283917f8be0079c531659141344cd1fd0a4f28419497f9722a3daafe3b4186f6b6457e09190a35050565b60006020828403121561099257600080fd5b5035919050565b6000602082840312156109ab57600080fd5b81356001600160a01b038116811461048a57600080fd5b634e487b7160e01b600052601160045260246000fd5b818103818111156109eb576109eb6109c2565b92915050565b634e487b7160e01b600052603260045260246000fd5b80820281158282048414176109eb576109eb6109c2565b600082610a3b57634e487b7160e01b600052601260045260246000fd5b500490565b808201808211156109eb576109eb6109c2565b600060018201610a6557610a656109c2565b5060010190565b600060208284031215610a7e57600080fd5b505191905056fea2646970667358221220c03608882cff8b004a344e1d803de16b6f743e628060c1038a2ee162480559c364736f6c63430008110033",
  "devdoc": {
    "author": "Lodestar Finance & Plutus DAO",
    "kind": "dev",
    "methods": {
      "owner()": {
        "details": "Returns the address of the current owner."
      },
      "renounceOwnership()": {
        "details": "Leaves the contract without owner. It will not be possible to call `onlyOwner` functions anymore. Can only be called by the current owner. NOTE: Renouncing ownership will leave the contract without an owner, thereby removing any functionality that is only available to the owner."
      },
      "transferOwnership(address)": {
        "details": "Transfers ownership of the contract to a new account (`newOwner`). Can only be called by the current owner."
      },
      "updateIndex()": {
        "details": "we only ever update the index if requested update is within +/- 1% of previously accepted index and update threshold has been reached. Revert otherwise."
      }
    },
    "title": "Oracle for Plutus Vault GLP employing TWAP calculations for pricing",
    "version": 1
  },
  "userdoc": {
    "kind": "user",
    "methods": {
      "updateIndex()": {
        "notice": "Update the current, cumulative and average indices when required conditions are met If the price fails to update, the posted price will fall back on the last previously  accepted average index."
      }
    },
    "notice": "This contract uses a simple cumulative TWAP function. It is more resistant to manipulation but reported prices are less fresh over time.",
    "version": 1
  },
  "storageLayout": {
    "storage": [
      {
        "astId": 7,
        "contract": "contracts/plvGLPOracle.sol:plvGLPOracle",
        "label": "_owner",
        "offset": 0,
        "slot": "0",
        "type": "t_address"
      },
      {
        "astId": 261,
        "contract": "contracts/plvGLPOracle.sol:plvGLPOracle",
        "label": "averageIndex",
        "offset": 0,
        "slot": "1",
        "type": "t_uint256"
      },
      {
        "astId": 263,
        "contract": "contracts/plvGLPOracle.sol:plvGLPOracle",
        "label": "windowSize",
        "offset": 0,
        "slot": "2",
        "type": "t_uint256"
      },
      {
        "astId": 265,
        "contract": "contracts/plvGLPOracle.sol:plvGLPOracle",
        "label": "GLP",
        "offset": 0,
        "slot": "3",
        "type": "t_address"
      },
      {
        "astId": 267,
        "contract": "contracts/plvGLPOracle.sol:plvGLPOracle",
        "label": "GLPManager",
        "offset": 0,
        "slot": "4",
        "type": "t_address"
      },
      {
        "astId": 269,
        "contract": "contracts/plvGLPOracle.sol:plvGLPOracle",
        "label": "plvGLP",
        "offset": 0,
        "slot": "5",
        "type": "t_address"
      },
      {
        "astId": 290,
        "contract": "contracts/plvGLPOracle.sol:plvGLPOracle",
        "label": "HistoricalIndices",
        "offset": 0,
        "slot": "6",
        "type": "t_array(t_struct(IndexInfo)286_storage)dyn_storage"
      }
    ],
    "types": {
      "t_address": {
        "encoding": "inplace",
        "label": "address",
        "numberOfBytes": "20"
      },
      "t_array(t_struct(IndexInfo)286_storage)dyn_storage": {
        "base": "t_struct(IndexInfo)286_storage",
        "encoding": "dynamic_array",
        "label": "struct plvGLPOracle.IndexInfo[]",
        "numberOfBytes": "32"
      },
      "t_struct(IndexInfo)286_storage": {
        "encoding": "inplace",
        "label": "struct plvGLPOracle.IndexInfo",
        "members": [
          {
            "astId": 283,
            "contract": "contracts/plvGLPOracle.sol:plvGLPOracle",
            "label": "timestamp",
            "offset": 0,
            "slot": "0",
            "type": "t_uint256"
          },
          {
            "astId": 285,
            "contract": "contracts/plvGLPOracle.sol:plvGLPOracle",
            "label": "recordedIndex",
            "offset": 0,
            "slot": "1",
            "type": "t_uint256"
          }
        ],
        "numberOfBytes": "64"
      },
      "t_uint256": {
        "encoding": "inplace",
        "label": "uint256",
        "numberOfBytes": "32"
      }
    }
  }
}