{
  "address": "0xac7353ab10E990EbB97b23f0aC90a97cC9B958B7",
  "abi": [
    {
      "inputs": [
        {
          "internalType": "address",
          "name": "_GLP",
          "type": "address"
        },
        {
          "internalType": "address",
          "name": "_GLPManager",
          "type": "address"
        },
        {
          "internalType": "address",
          "name": "_plvGLP",
          "type": "address"
        },
        {
          "internalType": "address",
          "name": "_whitelist",
          "type": "address"
        },
        {
          "internalType": "uint256",
          "name": "_windowSize",
          "type": "uint256"
        }
      ],
      "stateMutability": "nonpayable",
      "type": "constructor"
    },
    {
      "anonymous": false,
      "inputs": [
        {
          "indexed": false,
          "internalType": "uint256",
          "name": "previousIndex",
          "type": "uint256"
        },
        {
          "indexed": false,
          "internalType": "uint256",
          "name": "possiblyBadIndex",
          "type": "uint256"
        },
        {
          "indexed": false,
          "internalType": "uint256",
          "name": "timestamp",
          "type": "uint256"
        }
      ],
      "name": "IndexAlert",
      "type": "event"
    },
    {
      "anonymous": false,
      "inputs": [
        {
          "indexed": true,
          "internalType": "address",
          "name": "previousOwner",
          "type": "address"
        },
        {
          "indexed": true,
          "internalType": "address",
          "name": "newOwner",
          "type": "address"
        }
      ],
      "name": "OwnershipTransferred",
      "type": "event"
    },
    {
      "anonymous": false,
      "inputs": [
        {
          "indexed": false,
          "internalType": "address",
          "name": "oldGLPAddress",
          "type": "address"
        },
        {
          "indexed": false,
          "internalType": "address",
          "name": "newGLPAddress",
          "type": "address"
        }
      ],
      "name": "newGLPAddress",
      "type": "event"
    },
    {
      "anonymous": false,
      "inputs": [
        {
          "indexed": false,
          "internalType": "address",
          "name": "oldManagerAddress",
          "type": "address"
        },
        {
          "indexed": false,
          "internalType": "address",
          "name": "newManagerAddress",
          "type": "address"
        }
      ],
      "name": "newGLPManagerAddress",
      "type": "event"
    },
    {
      "anonymous": false,
      "inputs": [
        {
          "indexed": false,
          "internalType": "address",
          "name": "oldPlvGLPAddress",
          "type": "address"
        },
        {
          "indexed": false,
          "internalType": "address",
          "name": "newPlvGLPAddress",
          "type": "address"
        }
      ],
      "name": "newPlvGLPAddress",
      "type": "event"
    },
    {
      "anonymous": false,
      "inputs": [
        {
          "indexed": false,
          "internalType": "uint256",
          "name": "averageIndex",
          "type": "uint256"
        },
        {
          "indexed": false,
          "internalType": "uint256",
          "name": "timestamp",
          "type": "uint256"
        }
      ],
      "name": "updatePosted",
      "type": "event"
    },
    {
      "anonymous": false,
      "inputs": [
        {
          "indexed": false,
          "internalType": "uint256",
          "name": "oldWindowSize",
          "type": "uint256"
        },
        {
          "indexed": false,
          "internalType": "uint256",
          "name": "newWindowSize",
          "type": "uint256"
        }
      ],
      "name": "windowSizeUpdated",
      "type": "event"
    },
    {
      "inputs": [],
      "name": "GLP",
      "outputs": [
        {
          "internalType": "address",
          "name": "",
          "type": "address"
        }
      ],
      "stateMutability": "view",
      "type": "function"
    },
    {
      "inputs": [],
      "name": "GLPManager",
      "outputs": [
        {
          "internalType": "address",
          "name": "",
          "type": "address"
        }
      ],
      "stateMutability": "view",
      "type": "function"
    },
    {
      "inputs": [
        {
          "internalType": "uint256",
          "name": "",
          "type": "uint256"
        }
      ],
      "name": "HistoricalIndices",
      "outputs": [
        {
          "internalType": "uint256",
          "name": "timestamp",
          "type": "uint256"
        },
        {
          "internalType": "uint256",
          "name": "recordedIndex",
          "type": "uint256"
        }
      ],
      "stateMutability": "view",
      "type": "function"
    },
    {
      "inputs": [
        {
          "internalType": "address",
          "name": "_newGlpAddress",
          "type": "address"
        }
      ],
      "name": "_updateGlpAddress",
      "outputs": [],
      "stateMutability": "nonpayable",
      "type": "function"
    },
    {
      "inputs": [
        {
          "internalType": "address",
          "name": "_newGlpManagerAddress",
          "type": "address"
        }
      ],
      "name": "_updateGlpManagerAddress",
      "outputs": [],
      "stateMutability": "nonpayable",
      "type": "function"
    },
    {
      "inputs": [
        {
          "internalType": "address",
          "name": "_newPlvGlpAddress",
          "type": "address"
        }
      ],
      "name": "_updatePlvGlpAddress",
      "outputs": [],
      "stateMutability": "nonpayable",
      "type": "function"
    },
    {
      "inputs": [
        {
          "internalType": "uint256",
          "name": "_newWindowSize",
          "type": "uint256"
        }
      ],
      "name": "_updateWindowSize",
      "outputs": [],
      "stateMutability": "nonpayable",
      "type": "function"
    },
    {
      "inputs": [],
      "name": "averageIndex",
      "outputs": [
        {
          "internalType": "uint256",
          "name": "",
          "type": "uint256"
        }
      ],
      "stateMutability": "view",
      "type": "function"
    },
    {
      "inputs": [
        {
          "internalType": "uint256",
          "name": "currentIndex",
          "type": "uint256"
        }
      ],
      "name": "checkSwing",
      "outputs": [
        {
          "internalType": "bool",
          "name": "",
          "type": "bool"
        }
      ],
      "stateMutability": "nonpayable",
      "type": "function"
    },
    {
      "inputs": [],
      "name": "computeAverageIndex",
      "outputs": [
        {
          "internalType": "uint256",
          "name": "",
          "type": "uint256"
        }
      ],
      "stateMutability": "nonpayable",
      "type": "function"
    },
    {
      "inputs": [],
      "name": "getGLPPrice",
      "outputs": [
        {
          "internalType": "uint256",
          "name": "",
          "type": "uint256"
        }
      ],
      "stateMutability": "view",
      "type": "function"
    },
    {
      "inputs": [],
      "name": "getPlutusExchangeRate",
      "outputs": [
        {
          "internalType": "uint256",
          "name": "",
          "type": "uint256"
        }
      ],
      "stateMutability": "view",
      "type": "function"
    },
    {
      "inputs": [],
      "name": "getPlvGLPPrice",
      "outputs": [
        {
          "internalType": "uint256",
          "name": "",
          "type": "uint256"
        }
      ],
      "stateMutability": "view",
      "type": "function"
    },
    {
      "inputs": [],
      "name": "getPreviousIndex",
      "outputs": [
        {
          "internalType": "uint256",
          "name": "",
          "type": "uint256"
        }
      ],
      "stateMutability": "view",
      "type": "function"
    },
    {
      "inputs": [],
      "name": "isGLPOracle",
      "outputs": [
        {
          "internalType": "bool",
          "name": "",
          "type": "bool"
        }
      ],
      "stateMutability": "view",
      "type": "function"
    },
    {
      "inputs": [],
      "name": "owner",
      "outputs": [
        {
          "internalType": "address",
          "name": "",
          "type": "address"
        }
      ],
      "stateMutability": "view",
      "type": "function"
    },
    {
      "inputs": [],
      "name": "plvGLP",
      "outputs": [
        {
          "internalType": "address",
          "name": "",
          "type": "address"
        }
      ],
      "stateMutability": "view",
      "type": "function"
    },
    {
      "inputs": [],
      "name": "renounceOwnership",
      "outputs": [],
      "stateMutability": "nonpayable",
      "type": "function"
    },
    {
      "inputs": [
        {
          "internalType": "address",
          "name": "newOwner",
          "type": "address"
        }
      ],
      "name": "transferOwnership",
      "outputs": [],
      "stateMutability": "nonpayable",
      "type": "function"
    },
    {
      "inputs": [],
      "name": "updateIndex",
      "outputs": [],
      "stateMutability": "nonpayable",
      "type": "function"
    },
    {
      "inputs": [],
      "name": "whitelist",
      "outputs": [
        {
          "internalType": "address",
          "name": "",
          "type": "address"
        }
      ],
      "stateMutability": "view",
      "type": "function"
    },
    {
      "inputs": [],
      "name": "windowSize",
      "outputs": [
        {
          "internalType": "uint256",
          "name": "",
          "type": "uint256"
        }
      ],
      "stateMutability": "view",
      "type": "function"
    }
  ],
  "transactionHash": "0x25dfc459aa4cb254189ec389f0d37c480b878f1c673c8aa993ccbd2794115bf7",
  "args": [
    "0x6a86B2f0c78a6a3FeecD482FF14b2F30eF7B39a8",
    "0x6a86B2f0c78a6a3FeecD482FF14b2F30eF7B39a8",
    "0x9A2b694875c587986c3A07096Fd30275E97A6274",
    "0xB371BB8c9073E84FD54e0d8697816329397E743b",
    6
  ],
  "numDeployments": 16,
  "solcInputHash": "33497a249d5f66d889dc505868f98cf8",
  "bytecode": "0x60806040523480156200001157600080fd5b506040516200117138038062001171833981016040819052620000349162000309565b6200003f3362000174565b600380546001600160a01b038088166001600160a01b03199283161790925560048054878416908316179055600580548684169083161790556006805492851692909116919091179055600281905560006200009a620001c4565b905060008111620000f15760405162461bcd60e51b815260206004820152601b60248201527f466972737420696e6465782063616e6e6f74206265207a65726f2e0000000000604482015260640160405180910390fd5b60408051808201909152428152602081019182526007805460018101825560009190915290517fa66cc928b5edb82af9bd49922954155ab7b0942694bea4ce44661d9a8736c68860029092029182015590517fa66cc928b5edb82af9bd49922954155ab7b0942694bea4ce44661d9a8736c6899091015550620003d99350505050565b600080546001600160a01b038381166001600160a01b0319831681178455604051919092169283917f8be0079c531659141344cd1fd0a4f28419497f9722a3daafe3b4186f6b6457e09190a35050565b600080600560009054906101000a90046001600160a01b03166001600160a01b03166301e1d1146040518163ffffffff1660e01b8152600401602060405180830381865afa1580156200021b573d6000803e3d6000fd5b505050506040513d601f19601f8201168201806040525081019062000241919062000370565b90506000600560009054906101000a90046001600160a01b03166001600160a01b03166318160ddd6040518163ffffffff1660e01b8152600401602060405180830381865afa15801562000299573d6000803e3d6000fd5b505050506040513d601f19601f82011682018060405250810190620002bf919062000370565b9050600081620002d8670de0b6b3a7640000856200038a565b620002e49190620003b6565b949350505050565b80516001600160a01b03811681146200030457600080fd5b919050565b600080600080600060a086880312156200032257600080fd5b6200032d86620002ec565b94506200033d60208701620002ec565b93506200034d60408701620002ec565b92506200035d60608701620002ec565b9150608086015190509295509295909350565b6000602082840312156200038357600080fd5b5051919050565b8082028115828204841417620003b057634e487b7160e01b600052601160045260246000fd5b92915050565b600082620003d457634e487b7160e01b600052601260045260246000fd5b500490565b610d8880620003e96000396000f3fe608060405234801561001057600080fd5b50600436106101425760003560e01c806393099cb9116100b8578063b9f412b01161007c578063b9f412b014610286578063d2dcf99d1461028e578063edd145f4146102a1578063f2fde38b146102a9578063f9f5248f146102bc578063fc9e7897146102c457600080fd5b806393099cb91461021d57806393e59dc11461023057806398bb74e214610243578063b0f165441461024b578063b28147d91461027357600080fd5b80635d70af331161010a5780635d70af33146101c85780636689cd3a146101eb578063715018a6146101f3578063731cf425146101fb5780638a14117a146102035780638da5cb5b1461020c57600080fd5b806307701ade146101475780631b5423721461015c57806340d0c311146101775780634781ffb6146101a25780635bf12feb146101b5575b600080fd5b61015a610155366004610c2b565b6102cd565b005b61016461031b565b6040519081526020015b60405180910390f35b60055461018a906001600160a01b031681565b6040516001600160a01b03909116815260200161016e565b61015a6101b0366004610c44565b610362565b60045461018a906001600160a01b031681565b6101db6101d6366004610c2b565b6103c4565b604051901515815260200161016e565b61016461047d565b61015a61058c565b6101646105a0565b61016460025481565b6000546001600160a01b031661018a565b61015a61022b366004610c44565b6105d7565b60065461018a906001600160a01b031681565b610164610639565b61025e610259366004610c2b565b610757565b6040805192835260208301919091520161016e565b60035461018a906001600160a01b031681565b61015a610785565b61015a61029c366004610c44565b6109a0565b6101db600181565b61015a6102b7366004610c44565b610a02565b610164610a7b565b61016460015481565b6102d5610b81565b600280549082905560408051828152602081018490527ffc3448c061f61e9d77ffce44616df5d50668ebf9046dfa0ab713ce73d449a4cd91015b60405180910390a15050565b600754600090819061032f90600190610c83565b905060006007828154811061034657610346610c9c565b9060005260206000209060020201600101549050809250505090565b61036a610b81565b600380546001600160a01b038381166001600160a01b031983168117909355604080519190921680825260208201939093527fde5434ed888fac5f8b4efa5dbf5271ce7065f97af9f90f5853880a338b823e97910161030f565b6000806103cf61031b565b90506000670de0b6b3a76400006103ed662386f26fc1000084610cb2565b6103f79190610cc9565b905060006104058284610c83565b905060006104138385610ceb565b90508086118061042257508186105b15610471576040805185815260208101889052428183015290517efd19f8cbc03d8ecb7e340df1e5c84227b9bf3190f6b3eec0662492286ccb809181900360600190a150600095945050505050565b50600195945050505050565b600754600090819061049190600190610c83565b9050600060025482116105075760005b828110156104ed57600781815481106104bc576104bc610c9c565b906000526020600020906002020160010154826104d99190610ceb565b9150806104e581610cfe565b9150506104a1565b506007546104fb9082610cc9565b60018190559392505050565b6000600254836105179190610c83565b610522906001610ceb565b9050805b838111610571576007818154811061054057610540610c9c565b9060005260206000209060020201600101548361055d9190610ceb565b92508061056981610cfe565b915050610526565b5060025461057f9083610cc9565b6001819055949350505050565b610594610b81565b61059e6000610bdb565b565b6000806105ab610a7b565b90506000670de0b6b3a7640000826001546105c69190610cb2565b6105d09190610cc9565b9392505050565b6105df610b81565b600480546001600160a01b038381166001600160a01b031983168117909355604080519190921680825260208201939093527f07b18e7d9a54507fc51e0c3e89db1a56cb3e7f9ea8f88929c6ec105af6a7baee910161030f565b600080600560009054906101000a90046001600160a01b03166001600160a01b03166301e1d1146040518163ffffffff1660e01b8152600401602060405180830381865afa15801561068f573d6000803e3d6000fd5b505050506040513d601f19601f820116820180604052508101906106b39190610d17565b90506000600560009054906101000a90046001600160a01b03166001600160a01b03166318160ddd6040518163ffffffff1660e01b8152600401602060405180830381865afa15801561070a573d6000803e3d6000fd5b505050506040513d601f19601f8201168201806040525081019061072e9190610d17565b9050600081610745670de0b6b3a764000085610cb2565b61074f9190610cc9565b949350505050565b6007818154811061076757600080fd5b60009182526020909120600290910201805460019091015490915082565b600654604051633af32abf60e01b81523360048201526001600160a01b0390911690633af32abf90602401602060405180830381865afa1580156107cd573d6000803e3d6000fd5b505050506040513d601f19601f820116820180604052508101906107f19190610d30565b6108335760405162461bcd60e51b815260206004820152600e60248201526d1393d517d055551213d49256915160921b60448201526064015b60405180910390fd5b600061083d610639565b9050600061084961031b565b90506000610856836103c4565b9050806109225760408051808201909152428152602081018381526007805460018101825560009190915291517fa66cc928b5edb82af9bd49922954155ab7b0942694bea4ce44661d9a8736c688600290930292830155517fa66cc928b5edb82af9bd49922954155ab7b0942694bea4ce44661d9a8736c6899091015590915081906108e061047d565b6001819055604080519182524260208301527f086c06be0b6ec1b3888e9e00248848c72c994f5f2c67797a5f382642f37d528e910160405180910390a1505050565b60408051808201909152428152602081018481526007805460018101825560009190915291517fa66cc928b5edb82af9bd49922954155ab7b0942694bea4ce44661d9a8736c688600290930292830155517fa66cc928b5edb82af9bd49922954155ab7b0942694bea4ce44661d9a8736c689909101556108e061047d565b6109a8610b81565b600580546001600160a01b038381166001600160a01b031983168117909355604080519190921680825260208201939093527ff4c109dce4619f2c5b5b0e45be8c88d86f0c9194cd21f6635734af6af6942313910161030f565b610a0a610b81565b6001600160a01b038116610a6f5760405162461bcd60e51b815260206004820152602660248201527f4f776e61626c653a206e6577206f776e657220697320746865207a65726f206160448201526564647265737360d01b606482015260840161082a565b610a7881610bdb565b50565b6004805460405163019c8a3b60e11b8152600092810183905282916001600160a01b031690630339147690602401602060405180830381865afa158015610ac6573d6000803e3d6000fd5b505050506040513d601f19601f82011682018060405250810190610aea9190610d17565b90506000600360009054906101000a90046001600160a01b03166001600160a01b03166318160ddd6040518163ffffffff1660e01b8152600401602060405180830381865afa158015610b41573d6000803e3d6000fd5b505050506040513d601f19601f82011682018060405250810190610b659190610d17565b90506000620f4240610b778385610cc9565b61074f9190610cb2565b6000546001600160a01b0316331461059e5760405162461bcd60e51b815260206004820181905260248201527f4f776e61626c653a2063616c6c6572206973206e6f7420746865206f776e6572604482015260640161082a565b600080546001600160a01b038381166001600160a01b0319831681178455604051919092169283917f8be0079c531659141344cd1fd0a4f28419497f9722a3daafe3b4186f6b6457e09190a35050565b600060208284031215610c3d57600080fd5b5035919050565b600060208284031215610c5657600080fd5b81356001600160a01b03811681146105d057600080fd5b634e487b7160e01b600052601160045260246000fd5b81810381811115610c9657610c96610c6d565b92915050565b634e487b7160e01b600052603260045260246000fd5b8082028115828204841417610c9657610c96610c6d565b600082610ce657634e487b7160e01b600052601260045260246000fd5b500490565b80820180821115610c9657610c96610c6d565b600060018201610d1057610d10610c6d565b5060010190565b600060208284031215610d2957600080fd5b5051919050565b600060208284031215610d4257600080fd5b815180151581146105d057600080fdfea2646970667358221220a83897350550c5aa9ee3d9f038db28d8aab71d502494ab0d9887ac21000b1dbe64736f6c63430008110033",
  "devdoc": {
    "author": "Lodestar Finance & Plutus DAO",
    "kind": "dev",
    "methods": {
      "checkSwing(uint256)": {
        "params": {
          "currentIndex": "the currently reported index from Plutus to check swing on"
        },
        "returns": {
          "_0": "returns TRUE if requested update is within the bounds of maximum swing, returns FALSE otherwise."
        }
      },
      "computeAverageIndex()": {
        "returns": {
          "_0": "Returns the moving average of the index over the specified window."
        }
      },
      "getGLPPrice()": {
        "returns": {
          "_0": "Returns the price of GLP denominated in USD wei."
        }
      },
      "getPlutusExchangeRate()": {
        "returns": {
          "_0": "Returns the current plvGLP/GLP exchange rate directly from Plutus vault contract."
        }
      },
      "getPlvGLPPrice()": {
        "returns": {
          "_0": "Returns the TWAP price of plvGLP denominated in USD wei."
        }
      },
      "owner()": {
        "details": "Returns the address of the current owner."
      },
      "renounceOwnership()": {
        "details": "Leaves the contract without owner. It will not be possible to call `onlyOwner` functions anymore. Can only be called by the current owner. NOTE: Renouncing ownership will leave the contract without an owner, thereby removing any functionality that is only available to the owner."
      },
      "transferOwnership(address)": {
        "details": "Transfers ownership of the contract to a new account (`newOwner`). Can only be called by the current owner."
      },
      "updateIndex()": {
        "details": "we only ever update the index if requested update is within +/- 1% of previously accepted index and update threshold has been reached."
      }
    },
    "title": "Oracle for Plutus Vault GLP employing moving average calculations for pricing",
    "version": 1
  },
  "userdoc": {
    "kind": "user",
    "methods": {
      "_updateGlpAddress(address)": {
        "notice": "Admin function to update the address of GLP, restricted to only be  usable by the contract owner."
      },
      "_updateGlpManagerAddress(address)": {
        "notice": "Admin function to update the address of the GLP Manager Contract, restricted to only be  usable by the contract owner."
      },
      "_updatePlvGlpAddress(address)": {
        "notice": "Admin function to update the address of plvGLP, restricted to only be  usable by the contract owner."
      },
      "_updateWindowSize(uint256)": {
        "notice": "Admin function to update the moving average window size, restricted to only be  usable by the contract owner."
      },
      "checkSwing(uint256)": {
        "notice": "Checks the currently reported exchange rate against the last accepted exchange rate. Requested updates are compared against a range of +/- 1% of the previous exchange rate."
      },
      "computeAverageIndex()": {
        "notice": "Computes the moving average over a period of \"windowSize\". For the initialization period, the average is computed over the length of the indices array."
      },
      "getGLPPrice()": {
        "notice": "Pulls requisite data from GLP contract to calculate the current price of GLP"
      },
      "getPlutusExchangeRate()": {
        "notice": "Pulls requisite data from Plutus Vault contract to calculate the current exchange rate."
      },
      "getPlvGLPPrice()": {
        "notice": "Computes the TWAP price of plvGLP based on the current price of GLP and moving average of the plvGLP/GLP exchange rate."
      },
      "getPreviousIndex()": {
        "notice": "Returns the value of the previously accepted exchange rate."
      },
      "updateIndex()": {
        "notice": "Update the current, cumulative and average indices when required conditions are met. If the price fails to update, the posted price will fall back on the last previously  accepted average index. Access is restricted to only whitelisted addresses."
      }
    },
    "notice": "This contract uses a moving average calculation to report a plvGLP/GLP exchange rate. The \"window size\" is adjustable to allow for flexibility in calculation parameters. The price returned from the getPlvGLPPrice function is denominated in USD wei.",
    "version": 1
  },
  "storageLayout": {
    "storage": [
      {
        "astId": 7,
        "contract": "contracts/plvGLPOracle.sol:plvGLPOracle",
        "label": "_owner",
        "offset": 0,
        "slot": "0",
        "type": "t_address"
      },
      {
        "astId": 300,
        "contract": "contracts/plvGLPOracle.sol:plvGLPOracle",
        "label": "averageIndex",
        "offset": 0,
        "slot": "1",
        "type": "t_uint256"
      },
      {
        "astId": 302,
        "contract": "contracts/plvGLPOracle.sol:plvGLPOracle",
        "label": "windowSize",
        "offset": 0,
        "slot": "2",
        "type": "t_uint256"
      },
      {
        "astId": 304,
        "contract": "contracts/plvGLPOracle.sol:plvGLPOracle",
        "label": "GLP",
        "offset": 0,
        "slot": "3",
        "type": "t_address"
      },
      {
        "astId": 306,
        "contract": "contracts/plvGLPOracle.sol:plvGLPOracle",
        "label": "GLPManager",
        "offset": 0,
        "slot": "4",
        "type": "t_address"
      },
      {
        "astId": 308,
        "contract": "contracts/plvGLPOracle.sol:plvGLPOracle",
        "label": "plvGLP",
        "offset": 0,
        "slot": "5",
        "type": "t_address"
      },
      {
        "astId": 310,
        "contract": "contracts/plvGLPOracle.sol:plvGLPOracle",
        "label": "whitelist",
        "offset": 0,
        "slot": "6",
        "type": "t_address"
      },
      {
        "astId": 331,
        "contract": "contracts/plvGLPOracle.sol:plvGLPOracle",
        "label": "HistoricalIndices",
        "offset": 0,
        "slot": "7",
        "type": "t_array(t_struct(IndexInfo)327_storage)dyn_storage"
      }
    ],
    "types": {
      "t_address": {
        "encoding": "inplace",
        "label": "address",
        "numberOfBytes": "20"
      },
      "t_array(t_struct(IndexInfo)327_storage)dyn_storage": {
        "base": "t_struct(IndexInfo)327_storage",
        "encoding": "dynamic_array",
        "label": "struct plvGLPOracle.IndexInfo[]",
        "numberOfBytes": "32"
      },
      "t_struct(IndexInfo)327_storage": {
        "encoding": "inplace",
        "label": "struct plvGLPOracle.IndexInfo",
        "members": [
          {
            "astId": 324,
            "contract": "contracts/plvGLPOracle.sol:plvGLPOracle",
            "label": "timestamp",
            "offset": 0,
            "slot": "0",
            "type": "t_uint256"
          },
          {
            "astId": 326,
            "contract": "contracts/plvGLPOracle.sol:plvGLPOracle",
            "label": "recordedIndex",
            "offset": 0,
            "slot": "1",
            "type": "t_uint256"
          }
        ],
        "numberOfBytes": "64"
      },
      "t_uint256": {
        "encoding": "inplace",
        "label": "uint256",
        "numberOfBytes": "32"
      }
    }
  }
}